{
  "contractName": "Shipping",
  "abi": [
    {
      "inputs": [],
      "payable": false,
      "stateMutability": "nonpayable",
      "type": "constructor"
    },
    {
      "anonymous": false,
      "inputs": [
        {
          "indexed": false,
          "internalType": "string",
          "name": "description",
          "type": "string"
        }
      ],
      "name": "LogNewAlert",
      "type": "event"
    },
    {
      "constant": false,
      "inputs": [],
      "name": "Shipped",
      "outputs": [],
      "payable": false,
      "stateMutability": "nonpayable",
      "type": "function"
    },
    {
      "constant": false,
      "inputs": [],
      "name": "Delivered",
      "outputs": [],
      "payable": false,
      "stateMutability": "nonpayable",
      "type": "function"
    },
    {
      "constant": true,
      "inputs": [],
      "name": "Status",
      "outputs": [
        {
          "internalType": "string",
          "name": "",
          "type": "string"
        }
      ],
      "payable": false,
      "stateMutability": "view",
      "type": "function"
    }
  ],
  "bytecode": "0x608060405234801561001057600080fd5b506000805460ff191681556102ab90819061002b90396000f3fe608060405234801561001057600080fd5b50600436106100415760003560e01c806345f09ce914610046578063779822f7146100c35780637e59301e146100cd575b600080fd5b61004e6100d5565b6040805160208082528351818301528351919283929083019185019080838360005b83811015610088578181015183820152602001610070565b50505050905090810190601f1680156100b55780820380516001836020036101000a031916815260200191505b509250505060405180910390f35b6100cb6100ed565b005b6100cb61015d565b60005460609060ff166100e7816101cd565b91505090565b6000805460ff191660021790556040805160208082526018908201527f596f7572207061636b61676520686173206172726976656400000000000000008183015290517fca75c80642b93c980135b8355995abae3ab06033dc81f956b3824323b4903ef5916060908290030190a1565b6000805460ff19166001179055604080516020808252601d908201527f596f7572207061636b61676520686173206265656e20736869707065640000008183015290517fca75c80642b93c980135b8355995abae3ab06033dc81f956b3824323b4903ef5916060908290030190a1565b60608160028111156101db57fe5b610203575060408051808201909152600781526650656e64696e6760c81b6020820152610271565b81600281111561020f57fe5b6001141561023b575060408051808201909152600781526614da1a5c1c195960ca1b6020820152610271565b81600281111561024757fe5b60021415610271575060408051808201909152600981526811195b1a5d995c995960ba1b60208201525b91905056fea265627a7a723158205c399fa7093f18ba63aad3db4d7e499517d02d8fe932e81966ac1b92febc6f4864736f6c63430005100032",
  "source": "pragma solidity >=0.5.12<=0.8.0;\n\ncontract Shipping\n{\n    // Our predefined values for shipping listed as enums\n    enum ShippingStatus { Pending, Shipped, Delivered }\n\n    // Save enum ShippingStatus in variable status\n    ShippingStatus private status;\n\n    // Event to launch when package has arrived\n    event LogNewAlert(string description);\n\n    // This initializes our contract state (sets enum to Pending once the program starts)\n    constructor() public {\n        status = ShippingStatus.Pending;\n    }\n    // Function to change to Shipped\n    function Shipped() public {\n        status = ShippingStatus.Shipped;\n        emit LogNewAlert(\"Your package has been shipped\");\n    }\n\n    // Function to change to Delivered\n    function Delivered() public {\n        status = ShippingStatus.Delivered;\n        emit LogNewAlert(\"Your package has arrived\");\n    }\n\n    // Function to get the status of the shipping\n    function getStatus(ShippingStatus _status) internal pure returns (string memory) {\n     // Check the current status and return the correct name\n     if (ShippingStatus.Pending == _status) return \"Pending\";\n     if (ShippingStatus.Shipped == _status) return \"Shipped\";\n     if (ShippingStatus.Delivered == _status) return \"Delivered\";\n    }\n\n   // Get status of your shipped item\n    function Status() public view returns (string memory) {\n         ShippingStatus _status = status;\n         return getStatus(_status);\n    }\n\n}",
  "sourcePath": "/Users/hyuklee/Projects/newSolidityProject/contracts/Shipping.sol",
  "compiler": {
    "name": "solc",
    "version": "0.5.16+commit.9c3226ce.Emscripten.clang"
  },
  "schemaVersion": "3.4.6",
  "updatedAt": "2022-03-21T12:29:05.851Z",
  "networkType": "ethereum",
  "devdoc": {
    "methods": {}
  },
  "userdoc": {
    "methods": {}
  }
}